{
  "_format": "hh-sol-artifact-1",
  "contractName": "SadGorilla",
  "sourceName": "contracts/sadGorilla.sol",
  "abi": [
    {
      "inputs": [
        {
          "internalType": "string",
          "name": "name",
          "type": "string"
        },
        {
          "internalType": "string",
          "name": "symbol",
          "type": "string"
        }
      ],
      "stateMutability": "nonpayable",
      "type": "constructor"
    },
    {
      "anonymous": false,
      "inputs": [
        {
          "indexed": true,
          "internalType": "address",
          "name": "owner",
          "type": "address"
        },
        {
          "indexed": true,
          "internalType": "address",
          "name": "approved",
          "type": "address"
        },
        {
          "indexed": true,
          "internalType": "uint256",
          "name": "tokenId",
          "type": "uint256"
        }
      ],
      "name": "Approval",
      "type": "event"
    },
    {
      "anonymous": false,
      "inputs": [
        {
          "indexed": true,
          "internalType": "address",
          "name": "owner",
          "type": "address"
        },
        {
          "indexed": true,
          "internalType": "address",
          "name": "operator",
          "type": "address"
        },
        {
          "indexed": false,
          "internalType": "bool",
          "name": "approved",
          "type": "bool"
        }
      ],
      "name": "ApprovalForAll",
      "type": "event"
    },
    {
      "anonymous": false,
      "inputs": [
        {
          "indexed": true,
          "internalType": "address",
          "name": "previousOwner",
          "type": "address"
        },
        {
          "indexed": true,
          "internalType": "address",
          "name": "newOwner",
          "type": "address"
        }
      ],
      "name": "OwnershipTransferred",
      "type": "event"
    },
    {
      "anonymous": false,
      "inputs": [
        {
          "indexed": true,
          "internalType": "address",
          "name": "from",
          "type": "address"
        },
        {
          "indexed": true,
          "internalType": "address",
          "name": "to",
          "type": "address"
        },
        {
          "indexed": true,
          "internalType": "uint256",
          "name": "tokenId",
          "type": "uint256"
        }
      ],
      "name": "Transfer",
      "type": "event"
    },
    {
      "inputs": [
        {
          "internalType": "address",
          "name": "to",
          "type": "address"
        },
        {
          "internalType": "uint256",
          "name": "tokenId",
          "type": "uint256"
        }
      ],
      "name": "approve",
      "outputs": [],
      "stateMutability": "nonpayable",
      "type": "function"
    },
    {
      "inputs": [
        {
          "internalType": "address",
          "name": "owner",
          "type": "address"
        }
      ],
      "name": "balanceOf",
      "outputs": [
        {
          "internalType": "uint256",
          "name": "",
          "type": "uint256"
        }
      ],
      "stateMutability": "view",
      "type": "function"
    },
    {
      "inputs": [
        {
          "internalType": "uint256",
          "name": "tokenId",
          "type": "uint256"
        }
      ],
      "name": "getApproved",
      "outputs": [
        {
          "internalType": "address",
          "name": "",
          "type": "address"
        }
      ],
      "stateMutability": "view",
      "type": "function"
    },
    {
      "inputs": [],
      "name": "getBalance",
      "outputs": [
        {
          "internalType": "uint256",
          "name": "",
          "type": "uint256"
        }
      ],
      "stateMutability": "view",
      "type": "function"
    },
    {
      "inputs": [
        {
          "internalType": "address",
          "name": "owner",
          "type": "address"
        },
        {
          "internalType": "address",
          "name": "operator",
          "type": "address"
        }
      ],
      "name": "isApprovedForAll",
      "outputs": [
        {
          "internalType": "bool",
          "name": "",
          "type": "bool"
        }
      ],
      "stateMutability": "view",
      "type": "function"
    },
    {
      "inputs": [],
      "name": "mint",
      "outputs": [
        {
          "internalType": "uint256",
          "name": "",
          "type": "uint256"
        }
      ],
      "stateMutability": "payable",
      "type": "function"
    },
    {
      "inputs": [],
      "name": "name",
      "outputs": [
        {
          "internalType": "string",
          "name": "",
          "type": "string"
        }
      ],
      "stateMutability": "view",
      "type": "function"
    },
    {
      "inputs": [],
      "name": "owner",
      "outputs": [
        {
          "internalType": "address",
          "name": "",
          "type": "address"
        }
      ],
      "stateMutability": "view",
      "type": "function"
    },
    {
      "inputs": [
        {
          "internalType": "uint256",
          "name": "tokenId",
          "type": "uint256"
        }
      ],
      "name": "ownerOf",
      "outputs": [
        {
          "internalType": "address",
          "name": "",
          "type": "address"
        }
      ],
      "stateMutability": "view",
      "type": "function"
    },
    {
      "inputs": [],
      "name": "renounceOwnership",
      "outputs": [],
      "stateMutability": "nonpayable",
      "type": "function"
    },
    {
      "inputs": [
        {
          "internalType": "address",
          "name": "from",
          "type": "address"
        },
        {
          "internalType": "address",
          "name": "to",
          "type": "address"
        },
        {
          "internalType": "uint256",
          "name": "tokenId",
          "type": "uint256"
        }
      ],
      "name": "safeTransferFrom",
      "outputs": [],
      "stateMutability": "nonpayable",
      "type": "function"
    },
    {
      "inputs": [
        {
          "internalType": "address",
          "name": "from",
          "type": "address"
        },
        {
          "internalType": "address",
          "name": "to",
          "type": "address"
        },
        {
          "internalType": "uint256",
          "name": "tokenId",
          "type": "uint256"
        },
        {
          "internalType": "bytes",
          "name": "_data",
          "type": "bytes"
        }
      ],
      "name": "safeTransferFrom",
      "outputs": [],
      "stateMutability": "nonpayable",
      "type": "function"
    },
    {
      "inputs": [
        {
          "internalType": "address",
          "name": "operator",
          "type": "address"
        },
        {
          "internalType": "bool",
          "name": "approved",
          "type": "bool"
        }
      ],
      "name": "setApprovalForAll",
      "outputs": [],
      "stateMutability": "nonpayable",
      "type": "function"
    },
    {
      "inputs": [
        {
          "internalType": "string",
          "name": "baseURI_",
          "type": "string"
        }
      ],
      "name": "setBaseURI",
      "outputs": [],
      "stateMutability": "nonpayable",
      "type": "function"
    },
    {
      "inputs": [
        {
          "internalType": "bytes4",
          "name": "interfaceId",
          "type": "bytes4"
        }
      ],
      "name": "supportsInterface",
      "outputs": [
        {
          "internalType": "bool",
          "name": "",
          "type": "bool"
        }
      ],
      "stateMutability": "view",
      "type": "function"
    },
    {
      "inputs": [],
      "name": "symbol",
      "outputs": [
        {
          "internalType": "string",
          "name": "",
          "type": "string"
        }
      ],
      "stateMutability": "view",
      "type": "function"
    },
    {
      "inputs": [
        {
          "internalType": "uint256",
          "name": "_tokenId",
          "type": "uint256"
        }
      ],
      "name": "tokenURI",
      "outputs": [
        {
          "internalType": "string",
          "name": "",
          "type": "string"
        }
      ],
      "stateMutability": "view",
      "type": "function"
    },
    {
      "inputs": [
        {
          "internalType": "address",
          "name": "from",
          "type": "address"
        },
        {
          "internalType": "address",
          "name": "to",
          "type": "address"
        },
        {
          "internalType": "uint256",
          "name": "tokenId",
          "type": "uint256"
        }
      ],
      "name": "transferFrom",
      "outputs": [],
      "stateMutability": "nonpayable",
      "type": "function"
    },
    {
      "inputs": [
        {
          "internalType": "address",
          "name": "newOwner",
          "type": "address"
        }
      ],
      "name": "transferOwnership",
      "outputs": [],
      "stateMutability": "nonpayable",
      "type": "function"
    }
  ],
  "bytecode": "0x6103e7600955610100604052605160808181529062001c3b60a03980516200003091600a916020909101906200011c565b50670162ea854d0fc000600b553480156200004a57600080fd5b5060405162001c8c38038062001c8c8339810160408190526200006d9162000275565b815182908290620000869060009060208501906200011c565b5080516200009c9060019060208401906200011c565b505050620000b9620000b3620000c660201b60201c565b620000ca565b505060006007556200032f565b3390565b600680546001600160a01b038381166001600160a01b0319831681179093556040519116919082907f8be0079c531659141344cd1fd0a4f28419497f9722a3daafe3b4186f6b6457e090600090a35050565b8280546200012a90620002dc565b90600052602060002090601f0160209004810192826200014e576000855562000199565b82601f106200016957805160ff191683800117855562000199565b8280016001018555821562000199579182015b82811115620001995782518255916020019190600101906200017c565b50620001a7929150620001ab565b5090565b5b80821115620001a75760008155600101620001ac565b600082601f830112620001d3578081fd5b81516001600160401b0380821115620001f057620001f062000319565b604051601f8301601f19908116603f011681019082821181831017156200021b576200021b62000319565b8160405283815260209250868385880101111562000237578485fd5b8491505b838210156200025a57858201830151818301840152908201906200023b565b838211156200026b57848385830101525b9695505050505050565b6000806040838503121562000288578182fd5b82516001600160401b03808211156200029f578384fd5b620002ad86838701620001c2565b93506020850151915080821115620002c3578283fd5b50620002d285828601620001c2565b9150509250929050565b600281046001821680620002f157607f821691505b602082108114156200031357634e487b7160e01b600052602260045260246000fd5b50919050565b634e487b7160e01b600052604160045260246000fd5b6118fc806200033f6000396000f3fe6080604052600436106101145760003560e01c80636352211e116100a0578063a22cb46511610064578063a22cb465146102d7578063b88d4fde146102f7578063c87b56dd14610317578063e985e9c514610337578063f2fde38b1461038057610114565b80636352211e1461024f57806370a082311461026f578063715018a61461028f5780638da5cb5b146102a457806395d89b41146102c257610114565b806312065fe0116100e757806312065fe0146101ca5780631249c58b146101e757806323b872dd146101ef57806342842e0e1461020f57806355f804b31461022f57610114565b806301ffc9a71461011957806306fdde031461014e578063081812fc14610170578063095ea7b3146101a8575b600080fd5b34801561012557600080fd5b506101396101343660046114d5565b6103a0565b60405190151581526020015b60405180910390f35b34801561015a57600080fd5b506101636103f4565b60405161014591906116aa565b34801561017c57600080fd5b5061019061018b366004611553565b610486565b6040516001600160a01b039091168152602001610145565b3480156101b457600080fd5b506101c86101c33660046114ac565b610520565b005b3480156101d657600080fd5b50475b604051908152602001610145565b6101d9610636565b3480156101fb57600080fd5b506101c861020a3660046113be565b610726565b34801561021b57600080fd5b506101c861022a3660046113be565b610757565b34801561023b57600080fd5b506101c861024a36600461150d565b610772565b34801561025b57600080fd5b5061019061026a366004611553565b6107b3565b34801561027b57600080fd5b506101d961028a36600461136b565b61082a565b34801561029b57600080fd5b506101c86108b1565b3480156102b057600080fd5b506006546001600160a01b0316610190565b3480156102ce57600080fd5b506101636108e7565b3480156102e357600080fd5b506101c86102f2366004611472565b6108f6565b34801561030357600080fd5b506101c86103123660046113f9565b610901565b34801561032357600080fd5b50610163610332366004611553565b610939565b34801561034357600080fd5b5061013961035236600461138c565b6001600160a01b03918216600090815260056020908152604080832093909416825291909152205460ff1690565b34801561038c57600080fd5b506101c861039b36600461136b565b6109ea565b60006001600160e01b031982166380ac58cd60e01b14806103d157506001600160e01b03198216635b5e139f60e01b145b806103ec57506301ffc9a760e01b6001600160e01b03198316145b90505b919050565b60606000805461040390611804565b80601f016020809104026020016040519081016040528092919081815260200182805461042f90611804565b801561047c5780601f106104515761010080835404028352916020019161047c565b820191906000526020600020905b81548152906001019060200180831161045f57829003601f168201915b5050505050905090565b6000818152600260205260408120546001600160a01b03166105045760405162461bcd60e51b815260206004820152602c60248201527f4552433732313a20617070726f76656420717565727920666f72206e6f6e657860448201526b34b9ba32b73a103a37b5b2b760a11b60648201526084015b60405180910390fd5b506000908152600460205260409020546001600160a01b031690565b600061052b826107b3565b9050806001600160a01b0316836001600160a01b031614156105995760405162461bcd60e51b815260206004820152602160248201527f4552433732313a20617070726f76616c20746f2063757272656e74206f776e656044820152603960f91b60648201526084016104fb565b336001600160a01b03821614806105b557506105b58133610352565b6106275760405162461bcd60e51b815260206004820152603860248201527f4552433732313a20617070726f76652063616c6c6572206973206e6f74206f7760448201527f6e6572206e6f7220617070726f76656420666f7220616c6c000000000000000060648201526084016104fb565b6106318383610a85565b505050565b6000600954600754106106765760405162461bcd60e51b815260206004820152600860248201526714dbdb190813dd5d60c21b60448201526064016104fb565b600b543410156106bd5760405162461bcd60e51b815260206004820152601260248201527124b739bab33334b1b4b2b73a1022ba3432b960711b60448201526064016104fb565b60075461012c14806106d25750600754610279145b806106e057506007546103c6145b156106fe576021600760008282546106f89190611795565b90915550505b6007805490600061070e8361183f565b919050555061071f33600754610af3565b5060075490565b6107303382610c36565b61074c5760405162461bcd60e51b81526004016104fb90611744565b610631838383610d2d565b61063183838360405180602001604052806000815250610901565b6006546001600160a01b0316331461079c5760405162461bcd60e51b81526004016104fb9061170f565b80516107af90600a906020840190611245565b5050565b6000818152600260205260408120546001600160a01b0316806103ec5760405162461bcd60e51b815260206004820152602960248201527f4552433732313a206f776e657220717565727920666f72206e6f6e657869737460448201526832b73a103a37b5b2b760b91b60648201526084016104fb565b60006001600160a01b0382166108955760405162461bcd60e51b815260206004820152602a60248201527f4552433732313a2062616c616e636520717565727920666f7220746865207a65604482015269726f206164647265737360b01b60648201526084016104fb565b506001600160a01b031660009081526003602052604090205490565b6006546001600160a01b031633146108db5760405162461bcd60e51b81526004016104fb9061170f565b6108e56000610ec9565b565b60606001805461040390611804565b6107af338383610f1b565b61090b3383610c36565b6109275760405162461bcd60e51b81526004016104fb90611744565b61093384848484610fea565b50505050565b6000818152600260205260409020546060906001600160a01b03166109b85760405162461bcd60e51b815260206004820152602f60248201527f4552433732314d657461646174613a2055524920717565727920666f72206e6f60448201526e3732bc34b9ba32b73a103a37b5b2b760891b60648201526084016104fb565b600a6109c38361101d565b6040516020016109d49291906115b3565b6040516020818303038152906040529050919050565b6006546001600160a01b03163314610a145760405162461bcd60e51b81526004016104fb9061170f565b6001600160a01b038116610a795760405162461bcd60e51b815260206004820152602660248201527f4f776e61626c653a206e6577206f776e657220697320746865207a65726f206160448201526564647265737360d01b60648201526084016104fb565b610a8281610ec9565b50565b600081815260046020526040902080546001600160a01b0319166001600160a01b0384169081179091558190610aba826107b3565b6001600160a01b03167f8c5be1e5ebec7d5bd14f71427d1e84f3dd0314c0f7b2291e5b200ac8c7c3b92560405160405180910390a45050565b6001600160a01b038216610b495760405162461bcd60e51b815260206004820181905260248201527f4552433732313a206d696e7420746f20746865207a65726f206164647265737360448201526064016104fb565b6000818152600260205260409020546001600160a01b031615610bae5760405162461bcd60e51b815260206004820152601c60248201527f4552433732313a20746f6b656e20616c7265616479206d696e7465640000000060448201526064016104fb565b6001600160a01b0382166000908152600360205260408120805460019290610bd7908490611795565b909155505060008181526002602052604080822080546001600160a01b0319166001600160a01b03861690811790915590518392907fddf252ad1be2c89b69c2b068fc378daa952ba7f163c4a11628f55a4df523b3ef908290a46107af565b6000818152600260205260408120546001600160a01b0316610caf5760405162461bcd60e51b815260206004820152602c60248201527f4552433732313a206f70657261746f7220717565727920666f72206e6f6e657860448201526b34b9ba32b73a103a37b5b2b760a11b60648201526084016104fb565b6000610cba836107b3565b9050806001600160a01b0316846001600160a01b03161480610d0157506001600160a01b0380821660009081526005602090815260408083209388168352929052205460ff165b80610d255750836001600160a01b0316610d1a84610486565b6001600160a01b0316145b949350505050565b826001600160a01b0316610d40826107b3565b6001600160a01b031614610da45760405162461bcd60e51b815260206004820152602560248201527f4552433732313a207472616e736665722066726f6d20696e636f72726563742060448201526437bbb732b960d91b60648201526084016104fb565b6001600160a01b038216610e065760405162461bcd60e51b8152602060048201526024808201527f4552433732313a207472616e7366657220746f20746865207a65726f206164646044820152637265737360e01b60648201526084016104fb565b610e11600082610a85565b6001600160a01b0383166000908152600360205260408120805460019290610e3a9084906117c1565b90915550506001600160a01b0382166000908152600360205260408120805460019290610e68908490611795565b909155505060008181526002602052604080822080546001600160a01b0319166001600160a01b0386811691821790925591518493918716917fddf252ad1be2c89b69c2b068fc378daa952ba7f163c4a11628f55a4df523b3ef91a4610631565b600680546001600160a01b038381166001600160a01b0319831681179093556040519116919082907f8be0079c531659141344cd1fd0a4f28419497f9722a3daafe3b4186f6b6457e090600090a35050565b816001600160a01b0316836001600160a01b03161415610f7d5760405162461bcd60e51b815260206004820152601960248201527f4552433732313a20617070726f766520746f2063616c6c65720000000000000060448201526064016104fb565b6001600160a01b03838116600081815260056020908152604080832094871680845294825291829020805460ff191686151590811790915591519182527f17307eab39ab6107e8899845ad3d59bd9653f200f220920489ca2b5937696c31910160405180910390a3505050565b610ff5848484610d2d565b61100184848484611138565b6109335760405162461bcd60e51b81526004016104fb906116bd565b60608161104257506040805180820190915260018152600360fc1b60208201526103ef565b8160005b811561106c57806110568161183f565b91506110659050600a836117ad565b9150611046565b60008167ffffffffffffffff81111561109557634e487b7160e01b600052604160045260246000fd5b6040519080825280601f01601f1916602001820160405280156110bf576020820181803683370190505b5090505b8415610d25576110d46001836117c1565b91506110e1600a8661185a565b6110ec906030611795565b60f81b81838151811061110f57634e487b7160e01b600052603260045260246000fd5b60200101906001600160f81b031916908160001a905350611131600a866117ad565b94506110c3565b60006001600160a01b0384163b1561123a57604051630a85bd0160e11b81526001600160a01b0385169063150b7a029061117c90339089908890889060040161166d565b602060405180830381600087803b15801561119657600080fd5b505af19250505080156111c6575060408051601f3d908101601f191682019092526111c3918101906114f1565b60015b611220573d8080156111f4576040519150601f19603f3d011682016040523d82523d6000602084013e6111f9565b606091505b5080516112185760405162461bcd60e51b81526004016104fb906116bd565b805181602001fd5b6001600160e01b031916630a85bd0160e11b149050610d25565b506001949350505050565b82805461125190611804565b90600052602060002090601f01602090048101928261127357600085556112b9565b82601f1061128c57805160ff19168380011785556112b9565b828001600101855582156112b9579182015b828111156112b957825182559160200191906001019061129e565b506112c59291506112c9565b5090565b5b808211156112c557600081556001016112ca565b600067ffffffffffffffff808411156112f9576112f961189a565b604051601f8501601f19908116603f011681019082821181831017156113215761132161189a565b8160405280935085815286868601111561133a57600080fd5b858560208301376000602087830101525050509392505050565b80356001600160a01b03811681146103ef57600080fd5b60006020828403121561137c578081fd5b61138582611354565b9392505050565b6000806040838503121561139e578081fd5b6113a783611354565b91506113b560208401611354565b90509250929050565b6000806000606084860312156113d2578081fd5b6113db84611354565b92506113e960208501611354565b9150604084013590509250925092565b6000806000806080858703121561140e578081fd5b61141785611354565b935061142560208601611354565b925060408501359150606085013567ffffffffffffffff811115611447578182fd5b8501601f81018713611457578182fd5b611466878235602084016112de565b91505092959194509250565b60008060408385031215611484578182fd5b61148d83611354565b9150602083013580151581146114a1578182fd5b809150509250929050565b600080604083850312156114be578182fd5b6114c783611354565b946020939093013593505050565b6000602082840312156114e6578081fd5b8135611385816118b0565b600060208284031215611502578081fd5b8151611385816118b0565b60006020828403121561151e578081fd5b813567ffffffffffffffff811115611534578182fd5b8201601f81018413611544578182fd5b610d25848235602084016112de565b600060208284031215611564578081fd5b5035919050565b600081518084526115838160208601602086016117d8565b601f01601f19169290920160200192915050565b600081516115a98185602086016117d8565b9290920192915050565b82546000908190600281046001808316806115cf57607f831692505b60208084108214156115ef57634e487b7160e01b87526022600452602487fd5b818015611603576001811461161457611640565b60ff19861689528489019650611640565b60008b815260209020885b868110156116385781548b82015290850190830161161f565b505084890196505b5050505050506116646116538286611597565b64173539b7b760d91b815260050190565b95945050505050565b6001600160a01b03858116825284166020820152604081018390526080606082018190526000906116a09083018461156b565b9695505050505050565b600060208252611385602083018461156b565b60208082526032908201527f4552433732313a207472616e7366657220746f206e6f6e20455243373231526560408201527131b2b4bb32b91034b6b83632b6b2b73a32b960711b606082015260800190565b6020808252818101527f4f776e61626c653a2063616c6c6572206973206e6f7420746865206f776e6572604082015260600190565b60208082526031908201527f4552433732313a207472616e736665722063616c6c6572206973206e6f74206f6040820152701ddb995c881b9bdc88185c1c1c9bdd9959607a1b606082015260800190565b600082198211156117a8576117a861186e565b500190565b6000826117bc576117bc611884565b500490565b6000828210156117d3576117d361186e565b500390565b60005b838110156117f35781810151838201526020016117db565b838111156109335750506000910152565b60028104600182168061181857607f821691505b6020821081141561183957634e487b7160e01b600052602260045260246000fd5b50919050565b60006000198214156118535761185361186e565b5060010190565b60008261186957611869611884565b500690565b634e487b7160e01b600052601160045260246000fd5b634e487b7160e01b600052601260045260246000fd5b634e487b7160e01b600052604160045260246000fd5b6001600160e01b031981168114610a8257600080fdfea264697066735822122028a936bbf97719fe33ac3c928a76c33eaa8bf05aaa67c722801a6ead5d80473f64736f6c6343000802003368747470733a2f2f676174657761792e70696e6174612e636c6f75642f697066732f516d5065634d4a4336586e4a506969386f36316a5448346e5834384b315a71325847557557586f634d31595236792f",
  "linkReferences": {},
  "deployedLinkReferences": {}
}